{"_format":"hh-sol-artifact-1","contractName":"SimpleURIAndPriceNFTWithWithdrawalRoyalty","sourceName":"contracts/SimpleURIAndPriceNFTWithWithdrawalRoyalty.sol","abi":[{"inputs":[{"internalType":"string","name":"name","type":"string"},{"internalType":"string","name":"symbol","type":"string"},{"internalType":"string","name":"baseURI","type":"string"},{"internalType":"uint256","name":"priceInWei","type":"uint256"}],"stateMutability":"nonpayable","type":"constructor"},{"anonymous":false,"inputs":[{"indexed":true,"internalType":"address","name":"owner","type":"address"},{"indexed":true,"internalType":"address","name":"approved","type":"address"},{"indexed":true,"internalType":"uint256","name":"tokenId","type":"uint256"}],"name":"Approval","type":"event"},{"anonymous":false,"inputs":[{"indexed":true,"internalType":"address","name":"owner","type":"address"},{"indexed":true,"internalType":"address","name":"operator","type":"address"},{"indexed":false,"internalType":"bool","name":"approved","type":"bool"}],"name":"ApprovalForAll","type":"event"},{"anonymous":false,"inputs":[{"indexed":true,"internalType":"address","name":"to","type":"address"},{"indexed":true,"internalType":"uint256","name":"tokenId","type":"uint256"},{"indexed":false,"internalType":"string","name":"uri","type":"string"}],"name":"Minted","type":"event"},{"anonymous":false,"inputs":[{"indexed":true,"internalType":"address","name":"previousOwner","type":"address"},{"indexed":true,"internalType":"address","name":"newOwner","type":"address"}],"name":"OwnershipTransferred","type":"event"},{"anonymous":false,"inputs":[{"indexed":true,"internalType":"address","name":"from","type":"address"},{"indexed":true,"internalType":"address","name":"to","type":"address"},{"indexed":true,"internalType":"uint256","name":"tokenId","type":"uint256"}],"name":"Transfer","type":"event"},{"anonymous":false,"inputs":[{"indexed":false,"internalType":"address","name":"recipient","type":"address"},{"indexed":false,"internalType":"uint256","name":"value","type":"uint256"}],"name":"Withdrawal","type":"event"},{"inputs":[{"internalType":"address","name":"to","type":"address"},{"internalType":"uint256","name":"tokenId","type":"uint256"}],"name":"approve","outputs":[],"stateMutability":"nonpayable","type":"function"},{"inputs":[{"internalType":"address","name":"owner","type":"address"}],"name":"balanceOf","outputs":[{"internalType":"uint256","name":"","type":"uint256"}],"stateMutability":"view","type":"function"},{"inputs":[],"name":"balanceReceived","outputs":[{"internalType":"uint256","name":"","type":"uint256"}],"stateMutability":"view","type":"function"},{"inputs":[{"internalType":"uint256","name":"tokenId","type":"uint256"}],"name":"getApproved","outputs":[{"internalType":"address","name":"","type":"address"}],"stateMutability":"view","type":"function"},{"inputs":[{"internalType":"address","name":"owner","type":"address"},{"internalType":"address","name":"operator","type":"address"}],"name":"isApprovedForAll","outputs":[{"internalType":"bool","name":"","type":"bool"}],"stateMutability":"view","type":"function"},{"inputs":[{"internalType":"string","name":"tokenURI","type":"string"}],"name":"mint","outputs":[{"internalType":"uint256","name":"","type":"uint256"}],"stateMutability":"payable","type":"function"},{"inputs":[],"name":"mintPrice","outputs":[{"internalType":"uint256","name":"","type":"uint256"}],"stateMutability":"view","type":"function"},{"inputs":[],"name":"name","outputs":[{"internalType":"string","name":"","type":"string"}],"stateMutability":"view","type":"function"},{"inputs":[],"name":"nodPayoutAddress","outputs":[{"internalType":"address payable","name":"","type":"address"}],"stateMutability":"view","type":"function"},{"inputs":[],"name":"owner","outputs":[{"internalType":"address","name":"","type":"address"}],"stateMutability":"view","type":"function"},{"inputs":[{"internalType":"uint256","name":"tokenId","type":"uint256"}],"name":"ownerOf","outputs":[{"internalType":"address","name":"","type":"address"}],"stateMutability":"view","type":"function"},{"inputs":[],"name":"renounceOwnership","outputs":[],"stateMutability":"nonpayable","type":"function"},{"inputs":[{"internalType":"address","name":"from","type":"address"},{"internalType":"address","name":"to","type":"address"},{"internalType":"uint256","name":"tokenId","type":"uint256"}],"name":"safeTransferFrom","outputs":[],"stateMutability":"nonpayable","type":"function"},{"inputs":[{"internalType":"address","name":"from","type":"address"},{"internalType":"address","name":"to","type":"address"},{"internalType":"uint256","name":"tokenId","type":"uint256"},{"internalType":"bytes","name":"_data","type":"bytes"}],"name":"safeTransferFrom","outputs":[],"stateMutability":"nonpayable","type":"function"},{"inputs":[{"internalType":"address","name":"operator","type":"address"},{"internalType":"bool","name":"approved","type":"bool"}],"name":"setApprovalForAll","outputs":[],"stateMutability":"nonpayable","type":"function"},{"inputs":[{"internalType":"uint256","name":"priceInWei","type":"uint256"}],"name":"setMintPrice","outputs":[],"stateMutability":"nonpayable","type":"function"},{"inputs":[{"internalType":"bytes4","name":"interfaceId","type":"bytes4"}],"name":"supportsInterface","outputs":[{"internalType":"bool","name":"","type":"bool"}],"stateMutability":"view","type":"function"},{"inputs":[],"name":"symbol","outputs":[{"internalType":"string","name":"","type":"string"}],"stateMutability":"view","type":"function"},{"inputs":[{"internalType":"uint256","name":"tokenId","type":"uint256"}],"name":"tokenURI","outputs":[{"internalType":"string","name":"","type":"string"}],"stateMutability":"view","type":"function"},{"inputs":[{"internalType":"address","name":"from","type":"address"},{"internalType":"address","name":"to","type":"address"},{"internalType":"uint256","name":"tokenId","type":"uint256"}],"name":"transferFrom","outputs":[],"stateMutability":"nonpayable","type":"function"},{"inputs":[{"internalType":"address","name":"newOwner","type":"address"}],"name":"transferOwnership","outputs":[],"stateMutability":"nonpayable","type":"function"},{"inputs":[{"internalType":"address","name":"newAddress","type":"address"}],"name":"updateNodPayoutAddress","outputs":[],"stateMutability":"nonpayable","type":"function"},{"inputs":[],"name":"withdraw","outputs":[],"stateMutability":"nonpayable","type":"function"}],"bytecode":"0x608060405273efe523bb4b55cc316a3fe528ab0e8987eaa3d97e600b60006101000a81548173ffffffffffffffffffffffffffffffffffffffff021916908373ffffffffffffffffffffffffffffffffffffffff1602179055503480156200006657600080fd5b506040516200408c3803806200408c83398181016040528101906200008c91906200031d565b808085858582828160009080519060200190620000ab929190620001e4565b508060019080519060200190620000c4929190620001e4565b5050508060089080519060200190620000df929190620001e4565b5050505062000103620000f76200011660201b60201c565b6200011e60201b60201c565b80600a8190555050505050505062000568565b600033905090565b6000600960009054906101000a900473ffffffffffffffffffffffffffffffffffffffff16905081600960006101000a81548173ffffffffffffffffffffffffffffffffffffffff021916908373ffffffffffffffffffffffffffffffffffffffff1602179055508173ffffffffffffffffffffffffffffffffffffffff168173ffffffffffffffffffffffffffffffffffffffff167f8be0079c531659141344cd1fd0a4f28419497f9722a3daafe3b4186f6b6457e060405160405180910390a35050565b828054620001f29062000473565b90600052602060002090601f01602090048101928262000216576000855562000262565b82601f106200023157805160ff191683800117855562000262565b8280016001018555821562000262579182015b828111156200026157825182559160200191906001019062000244565b5b50905062000271919062000275565b5090565b5b808211156200029057600081600090555060010162000276565b5090565b6000620002ab620002a584620003fd565b620003d4565b905082815260208101848484011115620002c457600080fd5b620002d18482856200043d565b509392505050565b600082601f830112620002eb57600080fd5b8151620002fd84826020860162000294565b91505092915050565b60008151905062000317816200054e565b92915050565b600080600080608085870312156200033457600080fd5b600085015167ffffffffffffffff8111156200034f57600080fd5b6200035d87828801620002d9565b945050602085015167ffffffffffffffff8111156200037b57600080fd5b6200038987828801620002d9565b935050604085015167ffffffffffffffff811115620003a757600080fd5b620003b587828801620002d9565b9250506060620003c88782880162000306565b91505092959194509250565b6000620003e0620003f3565b9050620003ee8282620004a9565b919050565b6000604051905090565b600067ffffffffffffffff8211156200041b576200041a6200050e565b5b62000426826200053d565b9050602081019050919050565b6000819050919050565b60005b838110156200045d57808201518184015260208101905062000440565b838111156200046d576000848401525b50505050565b600060028204905060018216806200048c57607f821691505b60208210811415620004a357620004a2620004df565b5b50919050565b620004b4826200053d565b810181811067ffffffffffffffff82111715620004d657620004d56200050e565b5b80604052505050565b7f4e487b7100000000000000000000000000000000000000000000000000000000600052602260045260246000fd5b7f4e487b7100000000000000000000000000000000000000000000000000000000600052604160045260246000fd5b6000601f19601f8301169050919050565b620005598162000433565b81146200056557600080fd5b50565b613b1480620005786000396000f3fe6080604052600436106101405760003560e01c8063715018a6116100b6578063bc54ccb61161006f578063bc54ccb614610436578063c87b56dd1461045f578063d85d3d271461049c578063e985e9c5146104cc578063f2fde38b14610509578063f4a0a5281461053257610140565b8063715018a61461034c5780638da5cb5b1461036357806395d89b411461038e5780639fcba799146103b9578063a22cb465146103e4578063b88d4fde1461040d57610140565b80633ccfd60b116101085780633ccfd60b1461023c57806342842e0e1461025357806352a90c421461027c5780636352211e146102a75780636817c76c146102e457806370a082311461030f57610140565b806301ffc9a71461014557806306fdde0314610182578063081812fc146101ad578063095ea7b3146101ea57806323b872dd14610213575b600080fd5b34801561015157600080fd5b5061016c60048036038101906101679190612739565b61055b565b6040516101799190612d15565b60405180910390f35b34801561018e57600080fd5b5061019761063d565b6040516101a49190612d30565b60405180910390f35b3480156101b957600080fd5b506101d460048036038101906101cf91906127cc565b6106cf565b6040516101e19190612c41565b60405180910390f35b3480156101f657600080fd5b50610211600480360381019061020c91906126fd565b610754565b005b34801561021f57600080fd5b5061023a600480360381019061023591906125f7565b61086c565b005b34801561024857600080fd5b506102516108cc565b005b34801561025f57600080fd5b5061027a600480360381019061027591906125f7565b610bba565b005b34801561028857600080fd5b50610291610bda565b60405161029e9190613012565b60405180910390f35b3480156102b357600080fd5b506102ce60048036038101906102c991906127cc565b610c5e565b6040516102db9190612c41565b60405180910390f35b3480156102f057600080fd5b506102f9610d10565b6040516103069190613012565b60405180910390f35b34801561031b57600080fd5b5061033660048036038101906103319190612592565b610d16565b6040516103439190613012565b60405180910390f35b34801561035857600080fd5b50610361610dce565b005b34801561036f57600080fd5b50610378610e56565b6040516103859190612c41565b60405180910390f35b34801561039a57600080fd5b506103a3610e80565b6040516103b09190612d30565b60405180910390f35b3480156103c557600080fd5b506103ce610f12565b6040516103db9190612c5c565b60405180910390f35b3480156103f057600080fd5b5061040b600480360381019061040691906126c1565b610f38565b005b34801561041957600080fd5b50610434600480360381019061042f9190612646565b610f4e565b005b34801561044257600080fd5b5061045d60048036038101906104589190612592565b610fb0565b005b34801561046b57600080fd5b50610486600480360381019061048191906127cc565b61108b565b6040516104939190612d30565b60405180910390f35b6104b660048036038101906104b1919061278b565b6111dd565b6040516104c39190613012565b60405180910390f35b3480156104d857600080fd5b506104f360048036038101906104ee91906125bb565b611234565b6040516105009190612d15565b60405180910390f35b34801561051557600080fd5b50610530600480360381019061052b9190612592565b6112c8565b005b34801561053e57600080fd5b50610559600480360381019061055491906127cc565b6113c0565b005b60007f80ac58cd000000000000000000000000000000000000000000000000000000007bffffffffffffffffffffffffffffffffffffffffffffffffffffffff1916827bffffffffffffffffffffffffffffffffffffffffffffffffffffffff1916148061062657507f5b5e139f000000000000000000000000000000000000000000000000000000007bffffffffffffffffffffffffffffffffffffffffffffffffffffffff1916827bffffffffffffffffffffffffffffffffffffffffffffffffffffffff1916145b80610636575061063582611446565b5b9050919050565b60606000805461064c90613315565b80601f016020809104026020016040519081016040528092919081815260200182805461067890613315565b80156106c55780601f1061069a576101008083540402835291602001916106c5565b820191906000526020600020905b8154815290600101906020018083116106a857829003601f168201915b5050505050905090565b60006106da826114b0565b610719576040517f08c379a000000000000000000000000000000000000000000000000000000000815260040161071090612f32565b60405180910390fd5b6004600083815260200190815260200160002060009054906101000a900473ffffffffffffffffffffffffffffffffffffffff169050919050565b600061075f82610c5e565b90508073ffffffffffffffffffffffffffffffffffffffff168373ffffffffffffffffffffffffffffffffffffffff1614156107d0576040517f08c379a00000000000000000000000000000000000000000000000000000000081526004016107c790612fb2565b60405180910390fd5b8073ffffffffffffffffffffffffffffffffffffffff166107ef61151c565b73ffffffffffffffffffffffffffffffffffffffff16148061081e575061081d8161081861151c565b611234565b5b61085d576040517f08c379a000000000000000000000000000000000000000000000000000000000815260040161085490612e72565b60405180910390fd5b6108678383611524565b505050565b61087d61087761151c565b826115dd565b6108bc576040517f08c379a00000000000000000000000000000000000000000000000000000000081526004016108b390612fd2565b60405180910390fd5b6108c78383836116bb565b505050565b6108d461151c565b73ffffffffffffffffffffffffffffffffffffffff166108f2610e56565b73ffffffffffffffffffffffffffffffffffffffff1614610948576040517f08c379a000000000000000000000000000000000000000000000000000000000815260040161093f90612f52565b60405180910390fd5b6000610952610bda565b11610992576040517f08c379a000000000000000000000000000000000000000000000000000000000815260040161098990612e12565b60405180910390fd5b600061271061012c6109a2610bda565b6109ac9190613189565b6109b69190613158565b90506000816109c3610bda565b6109cd91906131e3565b90506000600b60009054906101000a900473ffffffffffffffffffffffffffffffffffffffff1673ffffffffffffffffffffffffffffffffffffffff1683604051610a1790612c2c565b60006040518083038185875af1925050503d8060008114610a54576040519150601f19603f3d011682016040523d82523d6000602084013e610a59565b606091505b505090506000610a6761151c565b73ffffffffffffffffffffffffffffffffffffffff1683604051610a8a90612c2c565b60006040518083038185875af1925050503d8060008114610ac7576040519150601f19603f3d011682016040523d82523d6000602084013e610acc565b606091505b50509050818015610ada5750805b610b19576040517f08c379a0000000000000000000000000000000000000000000000000000000008152600401610b1090612ff2565b60405180910390fd5b7f7fcf532c15f0a6db0bd6d0e038bea71d30d808c7d98cb3bf7268a95bf5081b65610b4261151c565b84604051610b51929190612cec565b60405180910390a17f7fcf532c15f0a6db0bd6d0e038bea71d30d808c7d98cb3bf7268a95bf5081b65600b60009054906101000a900473ffffffffffffffffffffffffffffffffffffffff1685604051610bac929190612c77565b60405180910390a150505050565b610bd583838360405180602001604052806000815250610f4e565b505050565b6000610be461151c565b73ffffffffffffffffffffffffffffffffffffffff16610c02610e56565b73ffffffffffffffffffffffffffffffffffffffff1614610c58576040517f08c379a0000000000000000000000000000000000000000000000000000000008152600401610c4f90612f52565b60405180910390fd5b47905090565b6000806002600084815260200190815260200160002060009054906101000a900473ffffffffffffffffffffffffffffffffffffffff169050600073ffffffffffffffffffffffffffffffffffffffff168173ffffffffffffffffffffffffffffffffffffffff161415610d07576040517f08c379a0000000000000000000000000000000000000000000000000000000008152600401610cfe90612eb2565b60405180910390fd5b80915050919050565b600a5481565b60008073ffffffffffffffffffffffffffffffffffffffff168273ffffffffffffffffffffffffffffffffffffffff161415610d87576040517f08c379a0000000000000000000000000000000000000000000000000000000008152600401610d7e90612e92565b60405180910390fd5b600360008373ffffffffffffffffffffffffffffffffffffffff1673ffffffffffffffffffffffffffffffffffffffff168152602001908152602001600020549050919050565b610dd661151c565b73ffffffffffffffffffffffffffffffffffffffff16610df4610e56565b73ffffffffffffffffffffffffffffffffffffffff1614610e4a576040517f08c379a0000000000000000000000000000000000000000000000000000000008152600401610e4190612f52565b60405180910390fd5b610e546000611917565b565b6000600960009054906101000a900473ffffffffffffffffffffffffffffffffffffffff16905090565b606060018054610e8f90613315565b80601f0160208091040260200160405190810160405280929190818152602001828054610ebb90613315565b8015610f085780601f10610edd57610100808354040283529160200191610f08565b820191906000526020600020905b815481529060010190602001808311610eeb57829003601f168201915b5050505050905090565b600b60009054906101000a900473ffffffffffffffffffffffffffffffffffffffff1681565b610f4a610f4361151c565b83836119dd565b5050565b610f5f610f5961151c565b836115dd565b610f9e576040517f08c379a0000000000000000000000000000000000000000000000000000000008152600401610f9590612fd2565b60405180910390fd5b610faa84848484611b4a565b50505050565b600b60009054906101000a900473ffffffffffffffffffffffffffffffffffffffff1673ffffffffffffffffffffffffffffffffffffffff16610ff161151c565b73ffffffffffffffffffffffffffffffffffffffff1614611047576040517f08c379a000000000000000000000000000000000000000000000000000000000815260040161103e90612d52565b60405180910390fd5b80600b60006101000a81548173ffffffffffffffffffffffffffffffffffffffff021916908373ffffffffffffffffffffffffffffffffffffffff16021790555050565b6060611096826114b0565b6110d5576040517f08c379a00000000000000000000000000000000000000000000000000000000081526004016110cc90612f12565b60405180910390fd5b60006006600084815260200190815260200160002080546110f590613315565b80601f016020809104026020016040519081016040528092919081815260200182805461112190613315565b801561116e5780601f106111435761010080835404028352916020019161116e565b820191906000526020600020905b81548152906001019060200180831161115157829003601f168201915b50505050509050600061117f611ba6565b90506000815114156111955781925050506111d8565b6000825111156111ca5780826040516020016111b2929190612c08565b604051602081830303815290604052925050506111d8565b6111d384611c38565b925050505b919050565b6000600a54341015611224576040517f08c379a000000000000000000000000000000000000000000000000000000000815260040161121b90612e52565b60405180910390fd5b61122d82611cdf565b9050919050565b6000600560008473ffffffffffffffffffffffffffffffffffffffff1673ffffffffffffffffffffffffffffffffffffffff16815260200190815260200160002060008373ffffffffffffffffffffffffffffffffffffffff1673ffffffffffffffffffffffffffffffffffffffff16815260200190815260200160002060009054906101000a900460ff16905092915050565b6112d061151c565b73ffffffffffffffffffffffffffffffffffffffff166112ee610e56565b73ffffffffffffffffffffffffffffffffffffffff1614611344576040517f08c379a000000000000000000000000000000000000000000000000000000000815260040161133b90612f52565b60405180910390fd5b600073ffffffffffffffffffffffffffffffffffffffff168173ffffffffffffffffffffffffffffffffffffffff1614156113b4576040517f08c379a00000000000000000000000000000000000000000000000000000000081526004016113ab90612d92565b60405180910390fd5b6113bd81611917565b50565b6113c861151c565b73ffffffffffffffffffffffffffffffffffffffff166113e6610e56565b73ffffffffffffffffffffffffffffffffffffffff161461143c576040517f08c379a000000000000000000000000000000000000000000000000000000000815260040161143390612f52565b60405180910390fd5b80600a8190555050565b60007f01ffc9a7000000000000000000000000000000000000000000000000000000007bffffffffffffffffffffffffffffffffffffffffffffffffffffffff1916827bffffffffffffffffffffffffffffffffffffffffffffffffffffffff1916149050919050565b60008073ffffffffffffffffffffffffffffffffffffffff166002600084815260200190815260200160002060009054906101000a900473ffffffffffffffffffffffffffffffffffffffff1673ffffffffffffffffffffffffffffffffffffffff1614159050919050565b600033905090565b816004600083815260200190815260200160002060006101000a81548173ffffffffffffffffffffffffffffffffffffffff021916908373ffffffffffffffffffffffffffffffffffffffff160217905550808273ffffffffffffffffffffffffffffffffffffffff1661159783610c5e565b73ffffffffffffffffffffffffffffffffffffffff167f8c5be1e5ebec7d5bd14f71427d1e84f3dd0314c0f7b2291e5b200ac8c7c3b92560405160405180910390a45050565b60006115e8826114b0565b611627576040517f08c379a000000000000000000000000000000000000000000000000000000000815260040161161e90612e32565b60405180910390fd5b600061163283610c5e565b90508073ffffffffffffffffffffffffffffffffffffffff168473ffffffffffffffffffffffffffffffffffffffff1614806116a157508373ffffffffffffffffffffffffffffffffffffffff16611689846106cf565b73ffffffffffffffffffffffffffffffffffffffff16145b806116b257506116b18185611234565b5b91505092915050565b8273ffffffffffffffffffffffffffffffffffffffff166116db82610c5e565b73ffffffffffffffffffffffffffffffffffffffff1614611731576040517f08c379a000000000000000000000000000000000000000000000000000000000815260040161172890612f72565b60405180910390fd5b600073ffffffffffffffffffffffffffffffffffffffff168273ffffffffffffffffffffffffffffffffffffffff1614156117a1576040517f08c379a000000000000000000000000000000000000000000000000000000000815260040161179890612dd2565b60405180910390fd5b6117ac838383611d7b565b6117b7600082611524565b6001600360008573ffffffffffffffffffffffffffffffffffffffff1673ffffffffffffffffffffffffffffffffffffffff168152602001908152602001600020600082825461180791906131e3565b925050819055506001600360008473ffffffffffffffffffffffffffffffffffffffff1673ffffffffffffffffffffffffffffffffffffffff168152602001908152602001600020600082825461185e9190613102565b92505081905550816002600083815260200190815260200160002060006101000a81548173ffffffffffffffffffffffffffffffffffffffff021916908373ffffffffffffffffffffffffffffffffffffffff160217905550808273ffffffffffffffffffffffffffffffffffffffff168473ffffffffffffffffffffffffffffffffffffffff167fddf252ad1be2c89b69c2b068fc378daa952ba7f163c4a11628f55a4df523b3ef60405160405180910390a4505050565b6000600960009054906101000a900473ffffffffffffffffffffffffffffffffffffffff16905081600960006101000a81548173ffffffffffffffffffffffffffffffffffffffff021916908373ffffffffffffffffffffffffffffffffffffffff1602179055508173ffffffffffffffffffffffffffffffffffffffff168173ffffffffffffffffffffffffffffffffffffffff167f8be0079c531659141344cd1fd0a4f28419497f9722a3daafe3b4186f6b6457e060405160405180910390a35050565b8173ffffffffffffffffffffffffffffffffffffffff168373ffffffffffffffffffffffffffffffffffffffff161415611a4c576040517f08c379a0000000000000000000000000000000000000000000000000000000008152600401611a4390612df2565b60405180910390fd5b80600560008573ffffffffffffffffffffffffffffffffffffffff1673ffffffffffffffffffffffffffffffffffffffff16815260200190815260200160002060008473ffffffffffffffffffffffffffffffffffffffff1673ffffffffffffffffffffffffffffffffffffffff16815260200190815260200160002060006101000a81548160ff0219169083151502179055508173ffffffffffffffffffffffffffffffffffffffff168373ffffffffffffffffffffffffffffffffffffffff167f17307eab39ab6107e8899845ad3d59bd9653f200f220920489ca2b5937696c3183604051611b3d9190612d15565b60405180910390a3505050565b611b558484846116bb565b611b6184848484611d80565b611ba0576040517f08c379a0000000000000000000000000000000000000000000000000000000008152600401611b9790612d72565b60405180910390fd5b50505050565b606060088054611bb590613315565b80601f0160208091040260200160405190810160405280929190818152602001828054611be190613315565b8015611c2e5780601f10611c0357610100808354040283529160200191611c2e565b820191906000526020600020905b815481529060010190602001808311611c1157829003601f168201915b5050505050905090565b6060611c43826114b0565b611c82576040517f08c379a0000000000000000000000000000000000000000000000000000000008152600401611c7990612f92565b60405180910390fd5b6000611c8c611ba6565b90506000815111611cac5760405180602001604052806000815250611cd7565b80611cb684611f17565b604051602001611cc7929190612c08565b6040516020818303038152906040525b915050919050565b6000611ceb60076120c4565b6000611cf760076120da565b9050611d0a611d0461151c565b826120e8565b611d148184612106565b80611d1d61151c565b73ffffffffffffffffffffffffffffffffffffffff167fe7cd4ce7f2a465edc730269a1305e8a48bad821e8fb7e152ec413829c01a53c4611d5d8461108b565b604051611d6a9190612d30565b60405180910390a380915050919050565b505050565b6000611da18473ffffffffffffffffffffffffffffffffffffffff1661217a565b15611f0a578373ffffffffffffffffffffffffffffffffffffffff1663150b7a02611dca61151c565b8786866040518563ffffffff1660e01b8152600401611dec9493929190612ca0565b602060405180830381600087803b158015611e0657600080fd5b505af1925050508015611e3757506040513d601f19601f82011682018060405250810190611e349190612762565b60015b611eba573d8060008114611e67576040519150601f19603f3d011682016040523d82523d6000602084013e611e6c565b606091505b50600081511415611eb2576040517f08c379a0000000000000000000000000000000000000000000000000000000008152600401611ea990612d72565b60405180910390fd5b805181602001fd5b63150b7a0260e01b7bffffffffffffffffffffffffffffffffffffffffffffffffffffffff1916817bffffffffffffffffffffffffffffffffffffffffffffffffffffffff191614915050611f0f565b600190505b949350505050565b60606000821415611f5f576040518060400160405280600181526020017f300000000000000000000000000000000000000000000000000000000000000081525090506120bf565b600082905060005b60008214611f91578080611f7a90613378565b915050600a82611f8a9190613158565b9150611f67565b60008167ffffffffffffffff811115611fd3577f4e487b7100000000000000000000000000000000000000000000000000000000600052604160045260246000fd5b6040519080825280601f01601f1916602001820160405280156120055781602001600182028036833780820191505090505b5090505b600085146120b85760018261201e91906131e3565b9150600a8561202d91906133c1565b60306120399190613102565b60f81b818381518110612075577f4e487b7100000000000000000000000000000000000000000000000000000000600052603260045260246000fd5b60200101907effffffffffffffffffffffffffffffffffffffffffffffffffffffffffffff1916908160001a905350600a856120b19190613158565b9450612009565b8093505050505b919050565b6001816000016000828254019250508190555050565b600081600001549050919050565b61210282826040518060200160405280600081525061218d565b5050565b61210f826114b0565b61214e576040517f08c379a000000000000000000000000000000000000000000000000000000000815260040161214590612ed2565b60405180910390fd5b806006600084815260200190815260200160002090805190602001906121759291906123b6565b505050565b600080823b905060008111915050919050565b61219783836121e8565b6121a46000848484611d80565b6121e3576040517f08c379a00000000000000000000000000000000000000000000000000000000081526004016121da90612d72565b60405180910390fd5b505050565b600073ffffffffffffffffffffffffffffffffffffffff168273ffffffffffffffffffffffffffffffffffffffff161415612258576040517f08c379a000000000000000000000000000000000000000000000000000000000815260040161224f90612ef2565b60405180910390fd5b612261816114b0565b156122a1576040517f08c379a000000000000000000000000000000000000000000000000000000000815260040161229890612db2565b60405180910390fd5b6122ad60008383611d7b565b6001600360008473ffffffffffffffffffffffffffffffffffffffff1673ffffffffffffffffffffffffffffffffffffffff16815260200190815260200160002060008282546122fd9190613102565b92505081905550816002600083815260200190815260200160002060006101000a81548173ffffffffffffffffffffffffffffffffffffffff021916908373ffffffffffffffffffffffffffffffffffffffff160217905550808273ffffffffffffffffffffffffffffffffffffffff16600073ffffffffffffffffffffffffffffffffffffffff167fddf252ad1be2c89b69c2b068fc378daa952ba7f163c4a11628f55a4df523b3ef60405160405180910390a45050565b8280546123c290613315565b90600052602060002090601f0160209004810192826123e4576000855561242b565b82601f106123fd57805160ff191683800117855561242b565b8280016001018555821561242b579182015b8281111561242a57825182559160200191906001019061240f565b5b509050612438919061243c565b5090565b5b8082111561245557600081600090555060010161243d565b5090565b600061246c61246784613052565b61302d565b90508281526020810184848401111561248457600080fd5b61248f8482856132d3565b509392505050565b60006124aa6124a584613083565b61302d565b9050828152602081018484840111156124c257600080fd5b6124cd8482856132d3565b509392505050565b6000813590506124e481613a82565b92915050565b6000813590506124f981613a99565b92915050565b60008135905061250e81613ab0565b92915050565b60008151905061252381613ab0565b92915050565b600082601f83011261253a57600080fd5b813561254a848260208601612459565b91505092915050565b600082601f83011261256457600080fd5b8135612574848260208601612497565b91505092915050565b60008135905061258c81613ac7565b92915050565b6000602082840312156125a457600080fd5b60006125b2848285016124d5565b91505092915050565b600080604083850312156125ce57600080fd5b60006125dc858286016124d5565b92505060206125ed858286016124d5565b9150509250929050565b60008060006060848603121561260c57600080fd5b600061261a868287016124d5565b935050602061262b868287016124d5565b925050604061263c8682870161257d565b9150509250925092565b6000806000806080858703121561265c57600080fd5b600061266a878288016124d5565b945050602061267b878288016124d5565b935050604061268c8782880161257d565b925050606085013567ffffffffffffffff8111156126a957600080fd5b6126b587828801612529565b91505092959194509250565b600080604083850312156126d457600080fd5b60006126e2858286016124d5565b92505060206126f3858286016124ea565b9150509250929050565b6000806040838503121561271057600080fd5b600061271e858286016124d5565b925050602061272f8582860161257d565b9150509250929050565b60006020828403121561274b57600080fd5b6000612759848285016124ff565b91505092915050565b60006020828403121561277457600080fd5b600061278284828501612514565b91505092915050565b60006020828403121561279d57600080fd5b600082013567ffffffffffffffff8111156127b757600080fd5b6127c384828501612553565b91505092915050565b6000602082840312156127de57600080fd5b60006127ec8482850161257d565b91505092915050565b6127fe8161329d565b82525050565b61280d81613229565b82525050565b61281c81613217565b82525050565b61282b8161323b565b82525050565b600061283c826130b4565b61284681856130ca565b93506128568185602086016132e2565b61285f816134ae565b840191505092915050565b6000612875826130bf565b61287f81856130e6565b935061288f8185602086016132e2565b612898816134ae565b840191505092915050565b60006128ae826130bf565b6128b881856130f7565b93506128c88185602086016132e2565b80840191505092915050565b60006128e1602a836130e6565b91506128ec826134bf565b604082019050919050565b60006129046032836130e6565b915061290f8261350e565b604082019050919050565b60006129276026836130e6565b91506129328261355d565b604082019050919050565b600061294a601c836130e6565b9150612955826135ac565b602082019050919050565b600061296d6024836130e6565b9150612978826135d5565b604082019050919050565b60006129906019836130e6565b915061299b82613624565b602082019050919050565b60006129b36014836130e6565b91506129be8261364d565b602082019050919050565b60006129d6602c836130e6565b91506129e182613676565b604082019050919050565b60006129f96012836130e6565b9150612a04826136c5565b602082019050919050565b6000612a1c6038836130e6565b9150612a27826136ee565b604082019050919050565b6000612a3f602a836130e6565b9150612a4a8261373d565b604082019050919050565b6000612a626029836130e6565b9150612a6d8261378c565b604082019050919050565b6000612a85602e836130e6565b9150612a90826137db565b604082019050919050565b6000612aa86020836130e6565b9150612ab38261382a565b602082019050919050565b6000612acb6031836130e6565b9150612ad682613853565b604082019050919050565b6000612aee602c836130e6565b9150612af9826138a2565b604082019050919050565b6000612b116020836130e6565b9150612b1c826138f1565b602082019050919050565b6000612b346029836130e6565b9150612b3f8261391a565b604082019050919050565b6000612b57602f836130e6565b9150612b6282613969565b604082019050919050565b6000612b7a6021836130e6565b9150612b85826139b8565b604082019050919050565b6000612b9d6000836130db565b9150612ba882613a07565b600082019050919050565b6000612bc06031836130e6565b9150612bcb82613a0a565b604082019050919050565b6000612be36011836130e6565b9150612bee82613a59565b602082019050919050565b612c0281613293565b82525050565b6000612c1482856128a3565b9150612c2082846128a3565b91508190509392505050565b6000612c3782612b90565b9150819050919050565b6000602082019050612c566000830184612813565b92915050565b6000602082019050612c716000830184612804565b92915050565b6000604082019050612c8c60008301856127f5565b612c996020830184612bf9565b9392505050565b6000608082019050612cb56000830187612813565b612cc26020830186612813565b612ccf6040830185612bf9565b8181036060830152612ce18184612831565b905095945050505050565b6000604082019050612d016000830185612813565b612d0e6020830184612bf9565b9392505050565b6000602082019050612d2a6000830184612822565b92915050565b60006020820190508181036000830152612d4a818461286a565b905092915050565b60006020820190508181036000830152612d6b816128d4565b9050919050565b60006020820190508181036000830152612d8b816128f7565b9050919050565b60006020820190508181036000830152612dab8161291a565b9050919050565b60006020820190508181036000830152612dcb8161293d565b9050919050565b60006020820190508181036000830152612deb81612960565b9050919050565b60006020820190508181036000830152612e0b81612983565b9050919050565b60006020820190508181036000830152612e2b816129a6565b9050919050565b60006020820190508181036000830152612e4b816129c9565b9050919050565b60006020820190508181036000830152612e6b816129ec565b9050919050565b60006020820190508181036000830152612e8b81612a0f565b9050919050565b60006020820190508181036000830152612eab81612a32565b9050919050565b60006020820190508181036000830152612ecb81612a55565b9050919050565b60006020820190508181036000830152612eeb81612a78565b9050919050565b60006020820190508181036000830152612f0b81612a9b565b9050919050565b60006020820190508181036000830152612f2b81612abe565b9050919050565b60006020820190508181036000830152612f4b81612ae1565b9050919050565b60006020820190508181036000830152612f6b81612b04565b9050919050565b60006020820190508181036000830152612f8b81612b27565b9050919050565b60006020820190508181036000830152612fab81612b4a565b9050919050565b60006020820190508181036000830152612fcb81612b6d565b9050919050565b60006020820190508181036000830152612feb81612bb3565b9050919050565b6000602082019050818103600083015261300b81612bd6565b9050919050565b60006020820190506130276000830184612bf9565b92915050565b6000613037613048565b90506130438282613347565b919050565b6000604051905090565b600067ffffffffffffffff82111561306d5761306c61347f565b5b613076826134ae565b9050602081019050919050565b600067ffffffffffffffff82111561309e5761309d61347f565b5b6130a7826134ae565b9050602081019050919050565b600081519050919050565b600081519050919050565b600082825260208201905092915050565b600081905092915050565b600082825260208201905092915050565b600081905092915050565b600061310d82613293565b915061311883613293565b9250827fffffffffffffffffffffffffffffffffffffffffffffffffffffffffffffffff0382111561314d5761314c6133f2565b5b828201905092915050565b600061316382613293565b915061316e83613293565b92508261317e5761317d613421565b5b828204905092915050565b600061319482613293565b915061319f83613293565b9250817fffffffffffffffffffffffffffffffffffffffffffffffffffffffffffffffff04831182151516156131d8576131d76133f2565b5b828202905092915050565b60006131ee82613293565b91506131f983613293565b92508282101561320c5761320b6133f2565b5b828203905092915050565b600061322282613273565b9050919050565b600061323482613273565b9050919050565b60008115159050919050565b60007fffffffff0000000000000000000000000000000000000000000000000000000082169050919050565b600073ffffffffffffffffffffffffffffffffffffffff82169050919050565b6000819050919050565b60006132a8826132af565b9050919050565b60006132ba826132c1565b9050919050565b60006132cc82613273565b9050919050565b82818337600083830152505050565b60005b838110156133005780820151818401526020810190506132e5565b8381111561330f576000848401525b50505050565b6000600282049050600182168061332d57607f821691505b6020821081141561334157613340613450565b5b50919050565b613350826134ae565b810181811067ffffffffffffffff8211171561336f5761336e61347f565b5b80604052505050565b600061338382613293565b91507fffffffffffffffffffffffffffffffffffffffffffffffffffffffffffffffff8214156133b6576133b56133f2565b5b600182019050919050565b60006133cc82613293565b91506133d783613293565b9250826133e7576133e6613421565b5b828206905092915050565b7f4e487b7100000000000000000000000000000000000000000000000000000000600052601160045260246000fd5b7f4e487b7100000000000000000000000000000000000000000000000000000000600052601260045260246000fd5b7f4e487b7100000000000000000000000000000000000000000000000000000000600052602260045260246000fd5b7f4e487b7100000000000000000000000000000000000000000000000000000000600052604160045260246000fd5b6000601f19601f8301169050919050565b7f4163636573732064656e69656420746f20757064617465206e6f64207061796f60008201527f7574206164647265737300000000000000000000000000000000000000000000602082015250565b7f4552433732313a207472616e7366657220746f206e6f6e20455243373231526560008201527f63656976657220696d706c656d656e7465720000000000000000000000000000602082015250565b7f4f776e61626c653a206e6577206f776e657220697320746865207a65726f206160008201527f6464726573730000000000000000000000000000000000000000000000000000602082015250565b7f4552433732313a20746f6b656e20616c7265616479206d696e74656400000000600082015250565b7f4552433732313a207472616e7366657220746f20746865207a65726f2061646460008201527f7265737300000000000000000000000000000000000000000000000000000000602082015250565b7f4552433732313a20617070726f766520746f2063616c6c657200000000000000600082015250565b7f4e6f2066756e647320746f207769746864726177000000000000000000000000600082015250565b7f4552433732313a206f70657261746f7220717565727920666f72206e6f6e657860008201527f697374656e7420746f6b656e0000000000000000000000000000000000000000602082015250565b7f496e73756666696369656e742066756e64730000000000000000000000000000600082015250565b7f4552433732313a20617070726f76652063616c6c6572206973206e6f74206f7760008201527f6e6572206e6f7220617070726f76656420666f7220616c6c0000000000000000602082015250565b7f4552433732313a2062616c616e636520717565727920666f7220746865207a6560008201527f726f206164647265737300000000000000000000000000000000000000000000602082015250565b7f4552433732313a206f776e657220717565727920666f72206e6f6e657869737460008201527f656e7420746f6b656e0000000000000000000000000000000000000000000000602082015250565b7f45524337323155524953746f726167653a2055524920736574206f66206e6f6e60008201527f6578697374656e7420746f6b656e000000000000000000000000000000000000602082015250565b7f4552433732313a206d696e7420746f20746865207a65726f2061646472657373600082015250565b7f45524337323155524953746f726167653a2055524920717565727920666f722060008201527f6e6f6e6578697374656e7420746f6b656e000000000000000000000000000000602082015250565b7f4552433732313a20617070726f76656420717565727920666f72206e6f6e657860008201527f697374656e7420746f6b656e0000000000000000000000000000000000000000602082015250565b7f4f776e61626c653a2063616c6c6572206973206e6f7420746865206f776e6572600082015250565b7f4552433732313a207472616e73666572206f6620746f6b656e2074686174206960008201527f73206e6f74206f776e0000000000000000000000000000000000000000000000602082015250565b7f4552433732314d657461646174613a2055524920717565727920666f72206e6f60008201527f6e6578697374656e7420746f6b656e0000000000000000000000000000000000602082015250565b7f4552433732313a20617070726f76616c20746f2063757272656e74206f776e6560008201527f7200000000000000000000000000000000000000000000000000000000000000602082015250565b50565b7f4552433732313a207472616e736665722063616c6c6572206973206e6f74206f60008201527f776e6572206e6f7220617070726f766564000000000000000000000000000000602082015250565b7f5769746864726177616c206661696c6564000000000000000000000000000000600082015250565b613a8b81613217565b8114613a9657600080fd5b50565b613aa28161323b565b8114613aad57600080fd5b50565b613ab981613247565b8114613ac457600080fd5b50565b613ad081613293565b8114613adb57600080fd5b5056fea26469706673582212201b135219bcdb6c981800299df820a391ddbcd87b530a4698f15f0e651e28592f64736f6c63430008040033","linkReferences":{},"deployedLinkReferences":{}}